:020000040800F2
:1000000008040020A1010008DF020008DB0200084C
:10001000DD020008E9010008F1040008000000000A
:10002000000000000000000000000000D9030008EC
:10003000EB01000800000000F50200089104000830
:10004000BB010008BB010008BB010008BB010008A0
:10005000BB010008BB010008BB010008BB01000890
:10006000BB010008BB010008BB010008BB01000880
:10007000BB010008BB010008BB010008BB01000870
:10008000BB010008BB010008BB010008BB01000860
:10009000BB010008BB010008BB010008BB01000850
:1000A000BB010008BB010008BB010008BB01000840
:1000B000BB010008BB010008BB010008BB01000830
:1000C000BB010008BB010008BB010008BB01000820
:1000D000BB010008BB010008BB010008BB01000810
:1000E000BB010008BB010008BB010008BB01000800
:1000F000BB010008BB010008BB010008BB010008F0
:10010000BB010008BB010008BB010008BB010008DF
:10011000BB010008BB010008BB010008BB010008CF
:10012000BB010008BB010008BB010008BB010008BF
:10013000BB010008BB010008BB010008BB010008AF
:10014000BB010008BB010008BB010008BB0100089F
:10015000BB010008BB010008BB010008BB0100088F
:10016000BB010008BB010008BB010008BB0100087F
:10017000BB010008BB010008BB010008BB0100086F
:10018000BB010008BB010008DFF810D000F01AF82E
:100190000048004711050008AFF300800804002064
:1001A0000648804706480047FEE7FEE7FEE7FEE711
:1001B000FEE7FEE7FEE7FEE7FEE7FEE79504000840
:1001C00089010008064C074D06E0E06840F0010395
:1001D00094E8070098471034AC42F6D3FFF7D8FFF5
:1001E0007405000894050008FEE7704700B5024654
:1001F0004FF47A7302E0184600F003F8521EFAD268
:1002000000BDA82148434FF0E021486100208861EB
:10021000052008610869C003FCD504200861704707
:10022000F0B50023012403270D6804FA03F21540FA
:10023000954242D1D0F800C05E0007FA06F52CEADC
:10024000050CC0F800C091F804C0D0F800E00CFA2A
:1002500006FC4CEA0E0CC0F800C091F804C0BCF1DA
:10026000010F02D0BCF1020F1FD1D0F808C02CEA58
:10027000050CC0F808C091F805C0D0F808E00CFAE9
:1002800006FC4CEA0E0CC0F808C0D0F804C02CEAFA
:10029000020CC0F804C0426891F806C00CFA03FCD6
:1002A0001FFA8CFC42EA0C024260C268AA43C26098
:1002B000CA79C568B2402A43C2605B1C102BB3D315
:1002C000F0BD0246002012690A4200D001207047AA
:1002D0000AB1816170470904FBE7FEE7FEE770475A
:1002E0000249084302490860704700000000FA050F
:1002F0000CED00E070470000044A0029116801D0AD
:10030000014300E081431160704700003038024033
:100310007CB500240121009408460194FFF7ECFF0E
:1003200001210220FFF7E8FF01210820FFF7E4FF89
:1003300001211020FFF7E0FF01212020FFF7DCFF63
:1003400001214020FFF7D8FF8DF80440022001254D
:100350008DF80700009569461B48FFF761FF1C20D8
:1003600000908DF8075069461848FFF759FF8DF83F
:1003700004504FF4E0608DF80540154D00908DF865
:1003800006408DF8074069462846FFF749FF114EA1
:100390004FF40044694630460094FFF741FF0022C5
:1003A000E1112846FFF794FF012251022846FFF78A
:1003B0008FFF012291022846FFF78AFF0022214683
:1003C0003046FFF785FF7CBD000002400010024070
:1003D0000014024000040240704700000CB50020E9
:1003E0002749019000900A6842F480320A604FF475
:1003F000A0430A6802F400320092019A521C019252
:10040000009A12B9019A9A42F3D10A68920334D53C
:10041000012000901A484030026842F08052026089
:100420001848026842F440420260154808300268E9
:100430000260026842F400420260026842F4A05284
:100440000260031F104A1A600A6842F080720A6054
:100450000A689201FCD50D4A40F2057111600168ED
:1004600021F003010160016841F0020101600168AF
:10047000C1F381010229FAD10CBD00900CBD00002E
:10048000003802400070004008544007003C024021
:1004900070470000124810B5016841F47001016016
:1004A0001048016841F0010101600E4A0021083244
:1004B000116002680C4B1A400260031D0B4A1A605F
:1004C000026822F48022026006480C300160FFF7C7
:1004D00085FF03494FF000608039086010BD0000BF
:1004E00088ED00E000380240FFFFF6FE10300024E7
:1004F000FEE702E008C8121F08C1002AFAD17047BF
:100500007047002001E001C1121F002AFBD1704793
:100510004FF44070FFF7E4FEFFF7FAFE0026124F9B
:10052000124CDFF84C904FF480780125208860B1A0
:10053000401C80B22080C82805D926800022414670
:100540004846FFF7C5FE208850B910213846FFF70E
:10055000B8FE28B92580012241464846FFF7B8FE7B
:100560000A20FFF743FEE1E70010024000000020F0
:100570000014024094050008000000200400000060
:10058000F20400089805000804000020040400009C
:08059000020500080000000054
:040000050800018965
:00000001FF
