:020000040800F2
:10000000300700202902000875030008710300086A
:1000100073030008D90200087D05000800000000F5
:100020000000000000000000000000009503000830
:10003000DB02000800000000770300086D040008E0
:10004000430200084302000843020008430200087C
:10005000430200084302000843020008430200086C
:10006000430200084302000843020008430200085C
:10007000430200084302000843020008430200084C
:10008000430200084302000843020008430200083C
:10009000430200084302000843020008430200082C
:1000A000430200084302000843020008430200081C
:1000B000430200084302000843020008430200080C
:1000C00043020008430200084302000843020008FC
:1000D00043020008CD040008430200084302000860
:1000E00043020008430200084302000843020008DC
:1000F00043020008430200084302000843020008CC
:1001000043020008430200084302000843020008BB
:1001100043020008430200084302000843020008AB
:10012000430200084302000843020008430200089B
:10013000430200084302000843020008430200088B
:10014000430200084302000843020008430200087B
:10015000430200084302000843020008430200086B
:10016000430200084302000843020008430200085B
:10017000430200084302000843020008430200084B
:10018000430200084302000800F002F800F03CF8C7
:100190000AA090E8000C82448344AAF10107DA45E2
:1001A00001D100F031F8AFF2090EBAE80F0013F0F8
:1001B000010F18BFFB1A43F001031847AC050000FC
:1001C000CC050000103A24BF78C878C1FAD852078D
:1001D00024BF30C830C144BF04680C6070470000C1
:1001E0000023002400250026103A28BF78C1FBD840
:1001F000520728BF30C148BF0B6070471FB500F0E1
:10020000ADFA1FBD10B510BD00F033F81146FFF771
:10021000F5FF00F06BFA00F051F803B4FFF7F2FFBE
:1002200003BC00F0ACF900000948804709480047CA
:10023000FEE7FEE7FEE7FEE7FEE7FEE7FEE7FEE796
:10024000FEE7FEE704480549054A064B70470000F3
:1002500071040008890100083001002030070020E7
:10026000300300203003002070477047704770470C
:100270007047754600F02CF8AE46050069465346B7
:1002800020F00700854618B020B5FFF7DBFFBDE87A
:1002900020404FF000064FF000074FF000084FF0ED
:1002A000000B21F00701AC46ACE8C009ACE8C0097E
:1002B000ACE8C009ACE8C0098D46704710B50446EB
:1002C000AFF300802046BDE81040FFF7A6BF000056
:1002D00000487047D0000020FEE770472DE9F0414C
:1002E000002201274FF0030C07FA02F50B682B40A0
:1002F000AB422CD1066853000CFA03F4A643066007
:100300000E79D0F800809E4046EA080606600E7915
:10031000012E01D0022E12D18668A64386604E7946
:10032000D0F808809E4046EA080686604668AE43DC
:10033000466045688E799640B6B235434560C568DB
:10034000A543C560CC799C40C3681C43C460521C63
:10035000102AC9D3BDE8F0810246002012690A4282
:1003600000D00120704709048161704781617047A6
:10037000FEE7FEE770477047054A002903D0116881
:10038000014311607047116881431160704700009C
:1003900030380240704700000CB5002201920092F4
:1003A0002749086840F4803008604FF4A04308688B
:1003B00000F4003000900198401C0190009810B9A2
:1003C00001989842F3D10868800302D5012000907B
:1003D00000E000920098012831D1194840300268AD
:1003E00042F0805202601748026842F440420260C4
:1003F0001348083002680260026842F4004202605A
:10040000026842F4A0520260021F0F4B13600A6898
:1004100042F080720A600A689201FCD50B4A40F2F1
:1004200005711160016821F003010160016841F06C
:10043000020101600168C1F381010229FAD10CBDFA
:10044000003802400070004008544007003C024061
:100450004FF0E021042804D0086920F0040008616E
:100460007047086940F00400086170477047000059
:1004700010B51248016841F470010160104801682C
:1004800041F0010101600E4A00210832116002684A
:100490000C4B1A400260031D0B4A1A60026822F4DA
:1004A0008022026006480C300160FFF775FF0349A7
:1004B0004FF000608039086010BD000088ED00E05A
:1004C00000380240FFFFF6FE1030002470B5164CD5
:1004D00040F22551204600F02DF800280ED020468D
:1004E00000F048F8C1B2114A1088030406D444044D
:1004F0004FF0000307D50A2901D0138070BD40F4E6
:100500000040108070BD0D290AD0094DC0F30D04C4
:100510002955401C80B21080C728F3D9138070BDC4
:1005200040F48040108070BD0010014004000020A5
:100530000800002070B5002440F66A12C1F342138F
:1005400001F01F05012606FA05F2012B0CD0022B43
:100550000DD0838A1340090A8E40008830400BB1C9
:1005600000B10124204670BD83891340F3E7038A5C
:100570001340F0E78088C0F308007047FEE770473B
:100580007CB501212020FFF7F7FE4FF48074009422
:1005900001208DF8040003208DF8050000208DF85F
:1005A0000600054D69462846FFF798FE2146284675
:1005B000FFF7D9FE7CBD00000014024010B50446D0
:1005C0006FF00400FFF744FF0649E008087000EBF5
:1005D0004002C2EBC0104FF6FF7202EAC000488032
:1005E00010BD00000000002070B54FF40775B0FB8F
:1005F000F5F1CCB2B0FBF5F105FB110604E028469D
:1006000000F00CF8641EE4B2002CF8D1002E04D0E7
:100610003046BDE8704000F001B870BD0B49498814
:1006200048434FF0E021486100238B61086940F0A6
:10063000010008610869C20701D0C003FAD5086942
:1006400020F0010008618B6170470000000000206D
:100650001CB501211020FFF78FFE10200090002014
:100660008DF8040003208DF8050001208DF80700A7
:1006700069460248FFF732FE1CBD00000010024030
:1006800070B50A4D4FF4806421462846FFF76BFE93
:100690000520FFF7A9FF21462846FFF767FEBDE8C2
:1006A00070404FF4FA70FFF79FBF00000014024043
:1006B0007CB501212020FFF75FFE4FF48064009499
:1006C00001208DF8040003208DF8050000208DF82E
:1006D0000600054D69462846FFF700FE21462846DC
:1006E000FFF744FE7CBD000000140240A820FFF785
:1006F00065FFFFF7ADFFFFF7DBFFFFF741FF154D8C
:10070000154CAE15271510212846FFF725FE40B1E0
:1007100031462046FFF727FE39462046FFF726FEE2
:10072000F1E71420FFF760FF10212846FFF714FEC1
:1007300040B131462046FFF716FE39462046FFF706
:1007400015FEE0E731462046FFF710FEFFF798FF61
:10075000D9E7000000100240001402404FF0407042
:10076000E1EE100A70470000880700080000002032
:1007700008000000C40100089007000808000020DD
:1007800028070000E0010008000000000000000051
:040000050800018965
:00000001FF
