:020000040800F2
:10000000000400209D010008A30200089F020008D0
:10001000A1020008E5010008ED030008000000004F
:10002000000000000000000000000000D5020008F1
:10003000E701000800000000B90200088D03000875
:10004000B7010008B7010008B7010008B7010008B0
:10005000B7010008B7010008B7010008B7010008A0
:10006000B7010008B7010008B7010008B701000890
:10007000B7010008B7010008B7010008B701000880
:10008000B7010008B7010008B7010008B701000870
:10009000B7010008B7010008B7010008B701000860
:1000A000B7010008B7010008B7010008B701000850
:1000B000B7010008B7010008B7010008B701000840
:1000C000B7010008B7010008B7010008B701000830
:1000D000B7010008B7010008B7010008B701000820
:1000E000B7010008B7010008B7010008B701000810
:1000F000B7010008B7010008B7010008B701000800
:10010000B7010008B7010008B7010008B7010008EF
:10011000B7010008B7010008B7010008B7010008DF
:10012000B7010008B7010008B7010008B7010008CF
:10013000B7010008B7010008B7010008B7010008BF
:10014000B7010008B7010008B7010008B7010008AF
:10015000B7010008B7010008B7010008B70100089F
:10016000B7010008B7010008B7010008B70100088F
:10017000B7010008B7010008B7010008B70100087F
:10018000B7010008B7010008DFF80CD000F018F83C
:10019000004800470D04000800040020064880477E
:1001A00006480047FEE7FEE7FEE7FEE7FEE7FEE75C
:1001B000FEE7FEE7FEE7FEE791030008890100087D
:1001C000064C074D06E0E06840F0010394E80700A4
:1001D00098471034AC42F6D3FFF7DAFF5C0400080E
:1001E0006C040008FEE7704701B50098411E0091BD
:1001F000FBD208BDF0B50023012403270D6804FAE3
:1002000003F21540954242D1D0F800C05E0007FAD3
:1002100006F52CEA050CC0F800C091F804C0D0F82F
:1002200000E00CFA06FC4CEA0E0CC0F800C091F895
:1002300004C0BCF1010F02D0BCF1020F1FD1D0F8F5
:1002400008C02CEA050CC0F808C091F805C0D0F829
:1002500008E00CFA06FC4CEA0E0CC0F808C0D0F816
:1002600004C02CEA020CC0F804C0426891F806C031
:100270000CFA03FC1FFA8CFC42EA0C024260C268D2
:10028000AA43C260CA79C568B2402A43C2605B1CF7
:10029000102BB3D3F0BD42694A4042617047FEE77C
:1002A000FEE77047024908430249086070470000B2
:1002B0000000FA050CED00E070470000044A002938
:1002C000116801D0014300E08143116070470000D4
:1002D00030380240704700000CB5002027490190DB
:1002E00000900A6842F480320A604FF4A0430A6822
:1002F00002F400320092019A521C0192009A12B943
:10030000019A9A42F3D10A68920334D501200090F1
:100310001A484030026842F0805202601848026871
:1003200042F44042026015480830026802600268E8
:1003300042F400420260026842F4A0520260031FCD
:10034000104A1A600A6842F080720A600A689201D4
:10035000FCD50D4A40F205711160016821F00301DE
:100360000160016841F0020101600168C1F381018F
:100370000229FAD10CBD00900CBD000000380240EB
:100380000070004008544007003C024070470000E5
:10039000124810B5016841F470010160104801680D
:1003A00041F0010101600E4A00210832116002682B
:1003B0000C4B1A400260031D0B4A1A60026822F4BB
:1003C0008022026006480C300160FFF785FF034978
:1003D0004FF000608039086010BD000088ED00E03B
:1003E00000380240FFFFF6FE10300024FEE702E076
:1003F00008C8121F08C1002AFAD1704770470020B0
:1004000001E001C1121F002AFBD170471CB54FF457
:100410004070FFF747FF01212020FFF74FFF012029
:100420008DF8040000208DF805008DF80600094DB8
:100430004FF4C0648DF80700009469462846FFF722
:10044000D9FE054E21462846FFF725FF3046FFF727
:10045000CBFEF7E700140240FFFF7F006C040008AA
:0C0460000000002000040000FE03000863
:040000050800018965
:00000001FF
