:020000040800F2
:100000003007002029020008AB0300086503000840
:10001000A9030008D9020008B50500080000000087
:10002000000000000000000000000000CD030008F8
:10003000DB02000800000000AD030008A504000872
:10004000430200084302000843020008430200087C
:10005000430200084302000843020008430200086C
:10006000430200084302000843020008430200085C
:10007000430200084302000843020008430200084C
:10008000430200084302000843020008430200083C
:10009000430200084302000843020008430200082C
:1000A000430200084302000843020008430200081C
:1000B000430200084302000843020008430200080C
:1000C00043020008430200084302000843020008FC
:1000D0004302000805050008430200084302000827
:1000E00043020008430200084302000843020008DC
:1000F00043020008430200084302000843020008CC
:1001000043020008430200084302000843020008BB
:1001100043020008430200084302000843020008AB
:10012000430200084302000843020008430200089B
:10013000430200084302000843020008430200088B
:10014000430200084302000843020008430200087B
:10015000430200084302000843020008430200086B
:10016000430200084302000843020008430200085B
:10017000430200084302000843020008430200084B
:10018000430200084302000800F002F800F03CF8C7
:100190000AA090E8000C82448344AAF10107DA45E2
:1001A00001D100F031F8AFF2090EBAE80F0013F0F8
:1001B000010F18BFFB1A43F001031847F8040000B1
:1001C00018050000103A24BF78C878C1FAD8520741
:1001D00024BF30C830C144BF04680C6070470000C1
:1001E0000023002400250026103A28BF78C1FBD840
:1001F000520728BF30C148BF0B6070471FB500F0E1
:1002000053FA1FBD10B510BD00F033F81146FFF7CB
:10021000F5FF00F01BFA00F051F803B4FFF7F2FF0E
:1002200003BC00F0C8F900000948804709480047AE
:10023000FEE7FEE7FEE7FEE7FEE7FEE7FEE7FEE796
:10024000FEE7FEE704480549054A064B70470000F3
:10025000A9040008890100083001002030070020AF
:10026000300300203003002070477047704770470C
:100270007047754600F02CF8AE46050069465346B7
:1002800020F00700854618B020B5FFF7DBFFBDE87A
:1002900020404FF000064FF000074FF000084FF0ED
:1002A000000B21F00701AC46ACE8C009ACE8C0097E
:1002B000ACE8C009ACE8C0098D46704710B50446EB
:1002C000AFF300802046BDE81040FFF7A6BF000056
:1002D00000487047D0000020FEE770472DE9F0414C
:1002E000002201274FF0030C07FA02F50B682B40A0
:1002F000AB422CD1066853000CFA03F4A643066007
:100300000E79D0F800809E4046EA080606600E7915
:10031000012E01D0022E12D18668A64386604E7946
:10032000D0F808809E4046EA080686604668AE43DC
:10033000466045688E799640B6B235434560C568DB
:10034000A543C560CC799C40C3681C43C460521C63
:10035000102AC9D3BDE8F0818161704742694A40E3
:1003600042617047FEE700007CB50121202000F0CB
:100370001FF84FF4C064009401208DF8040000229F
:100380008DF8062003228DF805208DF80700054D15
:1003900069462846FFF7A2FF21462846FFF7DCFF03
:1003A0007CBD000000140240FEE77047704700006B
:1003B000054A002903D01168014311607047116894
:1003C00081431160704700003038024070470000E0
:1003D0000CB50022019200922749086840F4803051
:1003E00008604FF4A043086800F4003000900198C2
:1003F000401C0190009810B901989842F3D1086808
:10040000800302D50120009000E0009200980128AE
:1004100031D119484030026842F0805202601748DA
:10042000026842F4404202601348083002680260E9
:10043000026842F400420260026842F4A052026084
:10044000021F0F4B13600A6842F080720A600A684C
:100450009201FCD50B4A40F205711160016821F050
:1004600003010160016841F0020101600168C1F30C
:1004700081010229FAD10CBD003802400070004011
:1004800008544007003C02404FF0E021042804D00B
:10049000086920F0040008617047086940F0040012
:1004A000086170477047000010B51248016841F4B8
:1004B000700101601048016841F0010101600E4ABD
:1004C00000210832116002680C4B1A400260031DC3
:1004D0000B4A1A60026822F48022026006480C303F
:1004E0000160FFF775FF03494FF000608039086035
:1004F00010BD000088ED00E000380240FFFFF6FE6E
:100500001030002470B5164C40F22551204600F002
:100510002DF800280ED0204600F048F8C1B2114A4C
:100520001088030406D444044FF0000307D50A29B9
:1005300001D0138070BD40F40040108070BD0D29C3
:100540000AD0094DC0F30D042955401C80B210801B
:10055000C728F3D9138070BD40F48040108070BD6F
:1005600000100140040000200800002070B50024A5
:1005700040F66A12C1F3421301F01F05012606FA84
:1005800005F2012B0CD0022B0DD0838A1340090AEF
:100590008E40008830400BB100B10124204670BD70
:1005A00083891340F3E7038A1340F0E78088C0F3A0
:1005B00008007047FEE7704710B504466FF004006E
:1005C000FFF762FF0649E008087000EB4002C2EB4B
:1005D000C0104FF6FF7202EAC000488010BD000054
:1005E0000000002070B54FF40775B0FBF5F1CCB2F8
:1005F000B0FBF5F105FB110604E0284600F00CF80D
:10060000641EE4B2002CF8D1002E04D03046BDE8C0
:10061000704000F001B870BD0B49498848434FF065
:10062000E021486100238B61086940F00100086106
:100630000869C20701D0C003FAD5086920F001009B
:1006400008618B617047000000000020A820FFF7C0
:10065000B3FFFFF789FE00240725DFF848904FF429
:10066000806814264FF4007A4FF48C773220FFF71D
:10067000B9FF641CA4B2B4FBF5F005FB104018B937
:1006800041464846FFF76AFEB4FBF6F006FB104011
:1006900018B951464846FFF761FEBC42E6D1002436
:1006A000E4E70000001402404FF04070E1EE100A51
:1006B00070470000D4060008000000200800000079
:1006C000C4010008DC06000808000020280700001C
:0C06D000E0010008000000000000000035
:040000050800018965
:00000001FF
